:020000020000FC
:02000000FFC03F
:100200000FE00ABB002700BF0FEF0BBB07BB04BB0F
:10021000222709B3007F003FE1F71EE01BBB09B3B3
:10022000007F003F39F423950894111F2430B1F763
:100230002227F3CF1F70012B2AE0073E69F120E04F
:100240000B3E51F12BE00D3E39F12CE00E3E21F139
:1002500021E0073D09F122E00B3DF1F023E00D3DE7
:10026000D9F02DE00E3DC1F024E0073BA9F025E0D8
:100270000B3B91F026E00D3B79F02EE00E3B61F058
:1002800027E0073749F028E00B3731F029E00D3738
:0E02900019F02FE00E3701F025BBBBCF25BBC8
:00000001FF
